:100000000C94AC030C94C9030C94C9030C94C9035D
:100010000C94C9030C94C9030C94C9030C94C90330
:100020000C94C9030C94C9030C941D2F0C94EF2F4E
:100030000C9485270C94C9030C94C9030C94C90330
:100040000C94C9030C94C9030C94C9030C94C90300
:100050000C94C9030C94ED270C94C9030C94C903A8
:100060000C94C9030C94C9030C94C9030C94C903E0
:100070000C94C9030C94C9030C94C9030C94C903D0
:100080000C94C9030C94C9030C94C9030C94C903C0
:100090000C94C9030C94C9030C94C9030C94C903B0
:1000A0000C94C9030C94C9030C94C90321042404BF
:1000B00027042A042D043004330486068B06950693
:1000C00089068E0693069106D907DB07E607DD074A
:1000D000DF07E107E307E507E807EA07EC07F707AB
:1000E000EE07F007F207F407F607F90787148A14FA
:1000F0008D1490149314961499149C149F14A214A4
:10010000A514B11CB11CE31CE31C1A1D3A1DA31E4F
:10011000011F7C1D011F291E291E9A1E011F011F80
:10012000FB1E361E361E361E361E361E361E361E6A
:10013000361E361E361E361E361E361E361E361E1F
:10014000361E471E541E5B1E621E6C1E8C1F8C1FAB
:100150009E1F9E1F951F9E1F9E1F9E1F8C1F8C1FE4
:100160009A1F9E1F9E1F9A1F5C308330753183300B
:100170007531CF30F23075314831573105A84CCD4B
:10018000B2D44EB93836A9020C50B9918688083CD1
:10019000A6AAAA2ABE000000803F6572676F646F3E
:1001A000785F657A2F393163333534666330653172
:1001B000316632303831343764204020302E362ECC
:1001C0003237332D31362D676234653462652D64E4
:1001D00069727479000000F0A12E0029002B00E163
:1001E00000354100001E00140004001D6134004D64
:1001F000001F001A0016001B00E1044C002000083C
:10020000000700060050002A00210015000900190F
:10021000004F004A00220017000A00050000006598
:1002200064500D01530000000F0000E3004F0D016A
:1002300053000000070000E20023001C000B001127
:100240000000002961240018000D00100052004B2E
:100250000025000C000E00360051002C0026001274
:10026000000F0037002F002800270013003342380A
:100270007130004E002D0031003468E5000151005E
:10028000002900010001000100010000003A001EE9
:100290000220022202010001003B001F0221022372
:1002A000020100C95C3C002F0226022F000100CA97
:1002B0005C3D00300227023000010001003E0031A9
:1002C00002350035020000C35C010001000000019E
:1002D000000000010001000100000001000000C258
:1002E0005C3F005200510024020000E75C40002403
:1002F0000021001E00010001004100250022001F16
:10030000003700C55C42002600230020002700C6FD
:100310005C43002502570031002E000100440045D7
:1003200000010001000100000001000100010001C6
:1003300000010000000100010001000100010001B6
:100340000001000100F2000100010001000100F0C5
:1003500000F1000100F400010001000100F30001C0
:1003600000F5000100010001000100010000000192
:100370000001000100000001000000010001000177
:100380000000000100000001000100010001000167
:1003900000000001000100010001000100A90001AE
:1003A00000010001000100AC00AA00B6000100013C
:1003B000000100AB00A800010001000100010001E4
:1003C000000100010001000100AE00010001000079
:1003D0000000000000000000002A2B2800000000A0
:1003E00000000000000000000000000029000000E4
:1003F000002C1E3420212224342627252E362D378A
:1004000038271E1F202122232425263333362E375A
:10041000381F0405060708090A0B0C0D0E0F1011F2
:1004200012131415161718191A1B1C1D2F313023FF
:100430002D350405060708090A0B0C0D0E0F1011C7
:1004400012131415161718191A1B1C1D2F313035CD
:100450004C00000000000000000000000000000050
:10046000000000000000000000000000000000008C
:100470000000010101010101000101010100000072
:100480000000000000000000000000010001000169
:10049000010101010101010101010101010101014C
:1004A000010101010101010101010101000000013F
:1004B000010000000000000000000000000000003B
:1004C0000000000000000000000000000101010128
:1004D0000000000000000101010101010101010211
:1004E00002020202020202020303030303030303E4
:1004F00004040404040405050505050606060606AD
:1005000007070707080808080909090A0A0A0A0B61
:100510000B0B0C0C0C0D0D0D0E0E0F0F0F10101100
:100520001111121213131414151516161717181883
:1005300019191A1A1B1C1C1D1D1E1F1F20202122E9
:10054000222324252526272728292A2B2B2C2D2E2C
:100550002F2F30313233343536363738393A3B3C49
:100560003D3E3F4041424344464748494A4B4C4D3B
:100570004F50515253555657585A5B5C5E5F6062FC
:1005800063646667696A6C6D6E707173747678798E
:100590007B7C7E8081838486888A8B8D8F919294E8
:1005A00096989A9B9D9FA1A3A5A7A9ABADAFB1B308
:1005B000B5B7B9BBBDBFC1C4C6C8CACCCFD1D3D6ED
:1005C000D8DADCDFE1E4E6E8EBEDF0F2F5F7FAFC8F
:1005D000FF04033000000016034500720067006F3F
:1005E0000044006F007800200045005A000000160B
:1005F000034500720067006F0044006F0078002020
:100600000045005A0000000403090409023B0002EF
:100610000100A0FA090400000103010100092111F1
:100620000100012240000705810308000A090401B6
:1006300000010300000009211101000122C0000790
:1006400005820320000A1201100100000008EDFEDF
:10065000071301000102030105010902A10185023E
:100660000901A100050919012905150025019505B4
:100670007501810295017503810105010930093178
:100680001581257F95027508810609381581257F1A
:10069000950175088106050C0A38021581257F959C
:1006A0000175088106C0C005010980A101850316F6
:1006B00001002603001A81002A830075109501812C
:1006C00000C0050C0901A1018504160100269C0249
:1006D0001A01002A9C02751095018100C0050109CC
:1006E00006A1018505050719E029E71500250195F3
:1006F0000875018102050819012905950575019103
:10070000029501750391010507190029EF150025D0
:100710000195F075018102C005010906A1010507D7
:1007200019E029E715002501950875018102950159
:1007300075088101050819012905950575019102C2
:100740009501750391010507190029FF150026FF82
:1007500000950675088100C011241FBECFEFDAE0B6
:10076000DEBFCDBF13E0A0E0B1E0EAE0FBE602C0EF
:1007700005900D92AA34B107D9F726E0AAE4B3E0B8
:1007800001C01D92A936B207E1F70E94412C0C94DA
:1007900083350C94000080B38C7080BB81B3836F71
:1007A00081BB089584B1807F84B985B1807F85B98C
:1007B0008AB1837F8AB98BB1837F8BB93E98469883
:1007C0000895CF93E82F873090F5809104019091A0
:1007D0000501892B09F049C0CE2F64E670E080E462
:1007E0000E9431189093050180930401892BD1F464
:1007F00064E670E082E10E9488189093050180937E
:100800000401892B79F481E090E001C0880FCA953A
:10081000EAF764E670E080950E94881890930501DD
:100820008093040184E690E0CF910C94DD1890E071
:10083000FC013797E730F105C0F4EA5AFF4F0C94FA
:100840007634209A289811C0219A29980EC0229AAD
:100850002A980BC0239A2B9808C0529A5A9805C020
:10086000539A5B9802C03E9A4698CF910895089596
:1008700008950C943804CF93DF930E94CA0590E04A
:1008800090930501809304010E94D2030E94CB0340
:10089000AFE9B3E02BE433E0EDEAF3E04EE04E0FD6
:1008A00011921D9280E090E0E901C80FD91F1882D3
:1008B000019686309105C1F72A5F3F4F4E13F0CF66
:1008C000DF91CF910C94FE060E94CA0590E09093B0
:1008D0000501809304010E94D2030E94CB03EDEA3C
:1008E000F3E08EE08E0F11928E13FDCF0895CF931B
:1008F000DF93E62FF0E0E156FC4F408148278083EC
:1009000086E0689FF0011124E55BFC4F20E030E0B9
:1009100080E061E070E050E0AAE0B22F908199237E
:1009200019F09150908307C0EB01022E01C0CC0F4B
:100930000A94EAF78C2BEA0102C0D595C795BA95BF
:10094000E2F7C0FDA0832F5F3F4F3196263031057F
:1009500021F7DF91CF910895CF93DF93D82F873080
:1009600008F040C08091040190910501892B09F0A5
:1009700042C064E670E080E40E9431189093050163
:1009800080930401892B11F0C0E027C064E670E079
:1009900083E10E9488189093050180930401892BBC
:1009A00099F764E670E081E40E94311890930501A4
:1009B00080930401892B41F784E690E00E94B818E7
:1009C00097FF05C09093050180930401DDCFC82FE8
:1009D000C095109205011092040184E690E00E94F7
:1009E000DD180AC09FB1CFB1C07FC695C695937080
:1009F000C92BC09501C0C0E06D2F8C2F0E947704D9
:100A0000282F2095ED2FF0E0E355FC4F90819223A5
:100A10008C23892BDF91CF910895EF92FF920F9352
:100A20001F93CF93DF938091040190910501892B4F
:100A300091F080914A038F5F80934A0381110BC02C
:100A40000E94CA0590E09093050180930401892BD0
:100A500011F40E945C058DEAE82E83E0F82E04EB89
:100A600013E0C0E08C2F0E94E103D7E0DC0F8D2F54
:100A70000E94E1038C2F0E94AC04F70181937F0157
:100A80008D2F0E94AC04F80181938F010E94D20344
:100A9000CF5FC73039F70E940A0781E0DF91CF911D
:100AA0001F910F91FF90EF900895E82FF0E0E3552C
:100AB000FC4F80810895089556985E9825982D984A
:100AC00026982E9827982F988FEF90E09093890082
:100AD0008093880090938B0080938A0090938D0080
:100AE00080938C00259A2D9A2FEF80E792E0215079
:100AF00080409040E1F700C00000269A2E9A2FEF28
:100B000080E792E0215080409040E1F700C0000073
:100B1000279A2F9A2FEF80E792E021508040904053
:100B2000E1F700C0000025982D982FEF80E792E0B4
:100B3000215080409040E1F700C0000026982E9898
:100B40002FEF80E792E0215080409040E1F700C015
:100B5000000027982F9856985E9825982D982698EB
:100B60002E9827982F98089589EA8093800089E02D
:100B70008093810024982C983F988AB18F7C8AB901
:100B80006E98479A8BB180638BB9769A0E945C0508
:100B90000C94370480E290E0909305018093040167
:100BA0008091BB0381110EC00E942B1881E08093BD
:100BB000BB032FEF83ED90E3215080409040E1F79D
:100BC00000C0000064E670E080E40E943118909359
:100BD000050180930401892B09F050C064E670E0A0
:100BE00080E00E9488189093050180930401892B6E
:100BF00009F044C064E670E080E00E948818909399
:100C0000050180930401892BC9F564E670E08FE348
:100C10000E9488189093050180930401892B71F537
:100C200084E690E00E94DD1864E670E080E40E94B3
:100C300031189093050180930401892BF9F464E63F
:100C400070E08CE00E948818909305018093040165
:100C5000892BA1F464E670E080E00E9488189093EC
:100C6000050180930401892B49F464E670E08FE369
:100C70000E948818909305018093040184E690E017
:100C80000E94DD18809104010895611108C0FC01E3
:100C90008281882321F08AE991E00E94FB0680E0AE
:100CA00090E00895863E2CE5920721F0873E9C4512
:100CB00041F010C0FB018281882369F00E94A326C5
:100CC00007C0FB018281882331F081E00E94031676
:100CD00080E0089581E00895CF92DF92EF92FF9235
:100CE0006B017C010E94E52556985E9825982D9809
:100CF00026982E9827982F9890E0FC013197E7309E
:100D0000F105A8F4E35AFF4F0C947634259A2D9AF6
:100D10000EC0259A2D9A269A2E9A09C0259A2D9AA8
:100D200004C0259A2D9A269A2E9A279A2F9AC7019F
:100D3000B601FF90EF90DF90CF90089581E0089585
:100D40000C945206CF93282F30E0F901EF52FC4F5C
:100D5000C491F901EF5AFB4F2491222359F081EEFF
:100D60000E94E11A8C2F0E94E11A8C2F0E94FF1B17
:100D700081EE04C08C2F0E94E11A8C2FCF910C942D
:100D8000FF1B0F931F93CF93DF93EC01062FFE0100
:100D90008491882359F19E012F5F3F4F813041F4A8
:100DA000E901F9011491812F0E94E11A812F0DC0F0
:100DB000823031F4E901F90184910E94E11A0AC0FC
:100DC000833031F4E901F90184910E94FF1B02C0D4
:100DD0000E94A2062196802F8823C9F2EFE9FFE046
:100DE0003197F1F700C000008150F6CFDF91CF912D
:100DF0001F910F91089560E00C94C1060E94352662
:100E0000811102C00E94A3260E94A9140E94720CA4
:100E10000C94B4050E940B148091BC03811102C094
:100E20000E94D20D8091BC0390E001966BE070E0CF
:100E30000E9462348093BC030C943904282F2F70D5
:100E400041F0822F90E02A3010F44D9608950697D5
:100E5000089587E290E0089508950C942C070C946F
:100E60002D0708950E947C1F0E9431072FEF84E315
:100E70009CE0215080409040E1F700C000000C94BD
:100E80001328FF920F931F93CF93DF938C01FC01E4
:100E9000C081D18180911804811113C0828188237F
:100EA00049F0CE010E94B224F82E682FCE010E9494
:100EB000552404C0CE010E948524F82EBE018F2D3A
:100EC00004C0CE010E94B224BE010E94DC09EC01E4
:100ED000B8010E94A006882309F466C2B801CE01B9
:100EE0000E94ED0C882309F45FC2CC3CFCE5DF07CF
:100EF00041F4F8018281882309F456C20E94EA1560
:100F000053C2CD3C8CE5D80708F01EC1C43C9CE51B
:100F1000D90761F4F8018281882309F445C20E944F
:100F200032258272E1F40E94FF143EC2C53CECE51A
:100F3000DE0708F0C7C0C531FCE5DF0798F0C23C0A
:100F4000FCE5DF0709F48CC008F492C0F801828147
:100F5000882309F429C20E943225827221F70E9457
:100F6000E51422C2C2308CE5D80708F452C0F8015B
:100F70008281882309F459C00E943526811102C05C
:100F80000E94A3260E94482690E090935B068093DF
:100F90005A06FE01E350FC45E231F10530F4EC590C
:100FA000FF4F80915A060C94763480915A068160E6
:100FB00027C0826025C0846023C0806121C0806218
:100FC0001FC080641DC080681BC08460886018C01A
:100FD0008E7F16C08D7F14C08B7F12C08F7E10C095
:100FE0008F7D0EC08F7B0CC08F770AC08B7F877F71
:100FF00007C087FB222720F991E0922790FB87F911
:1010000080935A0680915A060E944C260E947C1FAB
:10101000CBC1C1159CE5D90781F0C130DC45A9F0F1
:1010200081E08093C2038093C303C801DF91CF9115
:101030001F910F91FF900C949E06F80182818823E6
:1010400009F4B2C10E943207AFC1F801828188233E
:1010500009F4AAC18091B70481608093B704A4C148
:10106000F8018281882309F49FC10E94D7149CC192
:10107000C631DC45A9F60E943225282FF80182816D
:101080004091080150910901882379F02A7A91E072
:1010900009F490E09093BD03911102C069E201C090
:1010A00065E3CA010E940A270AC08091BD0381112D
:1010B00002C069E201C065E3CA010E9415270E94CF
:1010C000812572C1F8018281C83CFCE5DF0731F45B
:1010D000882309F469C10E948B1566C1C93C9CE54F
:1010E000D907C8F4C63CECE5DE0731F4882309F4DF
:1010F0005BC10E94451558C1C73CDC4530F48823CC
:1011000009F452C10E9419154FC1882309F44CC13A
:101110000E94751549C1CA3C9CE5D90731F4882362
:1011200009F442C10E94BB153FC1CB3CDC4530F401
:10113000882309F439C10E94A51536C1882309F412
:1011400033C10E94D51530C1C43DFCE5DF0791F4E1
:10115000F8018281882309F427C10E94121689317F
:1011600028F00E941216823208F4F9CE89E10E941A
:1011700003161AC1C53D8CE5D80708F068C0F80110
:101180008281C03DFCE5DF0771F4882309F40CC1BE
:101190000E941216893028F00E9412168E3008F430
:1011A000DECE89E0E4CFC13D9CE5D90740F5CE3CD9
:1011B000ECE5DE0771F4882309F4F6C00E941216EC
:1011C000823028F00E941216853008F4C8CE82E0E2
:1011D000CECFCF3CDC4528F4882309F4E5C081E07C
:1011E000C6CF882309F4E0C00E941216863028F08A
:1011F0000E941216883008F4B2CE86E0B8CFC23D05
:101200009CE5D90771F4882309F4CEC00E94121618
:10121000853128F00E941216873108F4A0CE85E1AE
:10122000A6CFC33DDC4570F4882309F4BDC00E94FD
:1012300012168F3028F00E941216843108F48FCED7
:101240008FE095CF882309F4AFC088E190CFC83DE7
:10125000FCE5DF0759F5F8018281882361F01092DF
:10126000C3030E94B7279093C1038093C00380E219
:101270000E946F1C99C08091C303882321F080E2F3
:101280000E94761C91C08091C0039091C1030E947E
:10129000C327883C910598F780E20E94761C88E27B
:1012A0000E94E11A88E20E94FF1B7EC0C93D8CE5C6
:1012B000D80708F058C0F8018281C63DFCE5DF0779
:1012C00051F5882351F01092C2030E94B7279093E2
:1012D000BF038093BE0382E0CBCF0E94322585FFFF
:1012E00005C081E08093C2038093C3038091C20351
:1012F00081110FC08091BE039091BF030E94C3274C
:10130000883C910530F486E20E94E11A86E20E9450
:10131000FF1B82E0B5CFC73DDC4528F4882309F4E4
:1013200043C083E224CF81119ACF0E94322581FFEE
:1013300005C081E08093C2038093C3038091C303FF
:1013400081119DCF8091C0039091C1030E94C3275A
:10135000883C910508F093CF87E20E94E11A87E26A
:101360000E94FF1B8CCFCC3DECE5DE0741F4F80179
:1013700082818823C9F082E00E94E02C15C0CD3D17
:10138000FCE5DF0739F4F8018281882369F00E94C7
:10139000A3260AC0CB3DDC4509F042CEF80182818C
:1013A000882311F080E0E8CF80E0DF91CF911F919A
:1013B0000F91FF900895089596E0799FF001112410
:1013C00094E5899FE00DF11D1124E60FF11DEE0F4C
:1013D000FF1FE752FE4F859194910895880F991F42
:1013E000FC01EB52FE4F859194910895CF93DF93CA
:1013F0000E94DC090E94BB0BEC01811520E59207DD
:10140000F0F5811530E4930708F029C1883E910575
:1014100000F5803E910508F0AAC1883A910570F464
:10142000853A910508F0A4C08130910509F49FC167
:1014300008F450C1049708F09AC14CC18F3B910544
:1014400008F4A1C0803C910508F444C1805C910976
:10145000F9C0811540E2940758F4C11581E0D8071E
:1014600008F085C1C03FD10508F434C1D0657FC103
:10147000811520E3920708F0E9C09F70E3C0811551
:1014800035E5930708F044C0811544E5940708F05A
:10149000FDC0C11582E5D80708F5C11521E5D207C1
:1014A00008F0E0C08C2F837021E030E002C0220FF2
:1014B000331F8A95E2F73C68CE0174E096958795D4
:1014C0007A95E1F78370382BCF70C695C69540E2C8
:1014D000C49FE0011124C22BD32B49C12C2F269588
:1014E0002695CE0183709927C115D34508F0BFC05A
:1014F00040E2249F90011124C1E0D0E002C0CC0F53
:10150000DD1F8A95E2F72C2B3D2BE901DC682FC10A
:1015100081154AE59407A0F4C11589E5D80708F0BC
:10152000C4C0C11526E5D20708F4B5C0C11538E519
:10153000D30708F4CFC0DC2FCC27C06FD06A17C107
:1015400081159B4508F4C6C0C1158CE5D80708F481
:10155000BEC0CE0190568115904208F0BBC08D2FC1
:101560008F710E94380CDD27D0628F71D82BFFC09D
:10157000853A910509F4B1C0863A910509F0B0C0E9
:10158000C2E8D0E4F4C0883A910509F4ACC0893AC5
:10159000910509F4ABC08A3A910509F4AAC08B3AC7
:1015A000910509F4A9C08C3A910509F4A8C08B3BB8
:1015B000910509F4A7C08C3B910509F4A6C08D3AAA
:1015C000910509F4A5C0803B910509F4A4C08E3AA9
:1015D000910509F4A3C08F3A910509F4A2C0813B9B
:1015E000910509F4A1C0823B910509F4A0C0833B99
:1015F000910509F49FC0843B910509F49EC0853B89
:10160000910509F49DC0863B910509F49CC0873B78
:10161000910509F49BC0883B910509F49AC0893B68
:10162000910509F499C08D3B910509F498C08E3B52
:10163000910509F497C08A3B910509F496C0C0E072
:10164000D4E495C00E94EE09EC0191C09927D3FF24
:1016500003C0EC01D86C8BC0EC01D06C88C0DF708B
:10166000D06A85C0DC2FCC27C16FD06A80C040E231
:10167000249F90011124C1E0D0E002C0CC0FDD1FF7
:101680008A95E2F7C22BD32BDA6871C0D82FCC270A
:10169000C46FD06A6CC08C2F0E94380C8F71C82F19
:1016A000D0E0DC2FCC27D06262C08C2F8F700E94DC
:1016B000380C94E0D695C7959A95E1F7CF70D0E0B5
:1016C000DC2FCC27D06A8F70806EC82B50C0DD27EE
:1016D000D0664DC0C0E0D0E04AC0C1E8D0E447C009
:1016E000C3E8D0E444C0C2EED4E441C0C9EED4E4BF
:1016F0003EC0CAEED4E43BC0C5EBD4E438C0C6EB70
:10170000D4E435C0C3EBD4E432C0C4EBD4E42FC07E
:10171000C7EBD4E42CC0CCECD4E429C0CDECD4E4A9
:1017200026C0C3E8D5E423C0CAE8D5E420C0C2E996
:10173000D5E41DC0C4E9D5E41AC0C1E2D6E417C09F
:10174000C3E2D6E414C0C4E2D6E411C0C5E2D6E4D4
:101750000EC0C6E2D6E40BC0C7E2D6E408C0CFE6AE
:10176000D4E405C0C0E7D4E402C0CAE2D6E4CE01A6
:10177000DF91CF9108958238910549F1B0F481331A
:10178000910509F458C048F48932910509F44EC016
:101790008A32910509F454C008958533910509F4FE
:1017A00040C08933910599F00895833E910529F150
:1017B00038F4803E910591F0823E9105A1F00895A4
:1017C000863E9105F9F0873E910531F1089520910B
:1017D0005A0620FD3AC021FD38C0089580915A066E
:1017E00080FD35C032C080915A0682FF32C08091A0
:1017F0005A0684FD30C083EE39C080915A0682FDBE
:1018000028C0F5CF80915A0683FF27C080915A06E1
:1018100084FD21C087EE2AC080915A0683FD1DC039
:10182000F5CF80915A0685FD1AC01BC080915A06DB
:1018300085FD17C014C080915A0686FD14C015C0DE
:1018400080915A0686FD11C00EC080EE0FC089E35C
:101850000DC082EE0BC080E009C086EE07C089E2B1
:1018600005C085E303C08AE201C081E390E00895EA
:1018700090915A0692FF0DC0282F2871283019F434
:10188000877F846006C0282F2471243011F48B7F59
:10189000886093FF0DC0282F2871283119F4877EA6
:1018A000846106C0282F2471243111F48B7E886155
:1018B00094FD877E0895CF93DF93813020E89207CF
:1018C00068F0FB012281222349F0EC010E94880C80
:1018D000CE019F770E94D00C0E94BD0C81E0DF9169
:1018E000CF9108958CE090E00E94D83490E0A0E081
:1018F000B0E08093E7049093E804A093E904B093E8
:10190000EA0408956091E7048CE090E00C94EC34D4
:101910000E9432258093C4030E9445258091E704EC
:10192000813071F048F08230D9F08430F9F486EEDD
:101930000E94671C88E118C082EE0E94E11A16C05E
:1019400080EE0E94E11A81EE0E94E11A88E10E9475
:10195000671C81EE0E94FF1B80EE0E94FF1B06C0E9
:1019600082EE0E94E11A87E50E94671C8FE39CE9E2
:101970000197F1F700C0000008958091E7048130DD
:1019800021F038F0823029F007C08CE20E94671CF9
:1019900003C082EE0E94FF1B8091C4030C94422579
:1019A0000F931F93CF93DF938C01CCE0D0E0C8015D
:1019B0000C2E02C0969587950A94E2F78F700E94CC
:1019C0001E070E94671C2497CC3F8FEFD80779F73A
:1019D000DF91CF911F910F9108950F931F93CF9394
:1019E000DF93EC018B01FB018281882319F1C23E58
:1019F000FCE5DF07C1F050F4C03EECE5DE0781F006
:101A0000C13EFCE5DF07B1F481E010C0C33E8CE5C8
:101A1000D80759F0C43EECE5DE0761F484E006C067
:101A20001092E70405C082E001C083E08093E704E0
:101A30000E94820CB801CE01DF91CF911F910F91CE
:101A40000C945B0CCF92DF92EF92FF920F931F9357
:101A5000CF93DF93E82FF82F711103C0682F782FF1
:101A60007EC0062F10E0C72FD0E0E82EF12CC80171
:101A70006BE270E00E944E349B0145ED4203B001E1
:101A8000439F700D1124060F171F86E0809FB00141
:101A9000819F700D11244FEF50E0CA018C1B9D0BEC
:101AA0008E9DD0018F9DB00D9E9DB00D11248B2F6A
:101AB0006C9F80016D9F100D7C9F100D1124012FD4
:101AC00011276A01C01AD10ACE9C8001CF9C100D4B
:101AD000DE9C100D11246A01C61AD70ACC9EB001F3
:101AE000CD9E700DDC9E700D1124672F7727461B4D
:101AF000570B4E9DE0014F9DD00D5E9DD00D1124E2
:101B00007D2F2230310599F04CF421153105C9F0B3
:101B100021303105A1F47E2FE12F13C02330310590
:101B200051F02430310559F4ED2F7B2F06C0EB2FF7
:101B30008D2F7F2F06C0712FEB2F8F2F02C07B2F91
:101B4000812FF0E0EF52FB4F6491E72FF0E0EF526E
:101B5000FB4F7491E82FF0E0EF52FB4F8491DF913F
:101B6000CF911F910F91FF90EF90DF90CF9008954C
:101B700088E090E00C94E034AB01BC0188E090E098
:101B80000C94FE34EBEEF4E08DE080831092EC04D4
:101B90008FEF82838383148260817181828193813C
:101BA0000C94BC0DE0914803F09149030994E09135
:101BB0004403F09145030994E0914603F0914703F3
:101BC000099440E060E080E00C94DC0DEBEEF4E082
:101BD0006081862F881F8827881F6091EC04660F1C
:101BE000682B728183810E94220D962F672F482FC8
:101BF000892F0C94DC0DDF92EF92FF920F931F93CD
:101C0000CF93DF938091EB04881F8827881F9091E2
:101C1000EC04492F440F242F282B97FB332730F94E
:101C2000C9018C549F4F68E671E00E946234821BA8
:101C3000930B8038910514F09A9505C081384FEFC9
:101C400094070CF4939597FD039695958795959534
:101C50008795C82F8091ED04281B310937FF02C0FA
:101C60002D5F3F4F3595279535952795D22FD090ED
:101C7000EE049CE1E92E91E0F92E00E010E0F7017E
:101C8000208122952F706091EB04962F991F992740
:101C9000991F6091EC04660F692B2C9F600D112435
:101CA0007091ED042D9F700D11248D2D0E94220D39
:101CB000472F282FC8010E94D70D0F5F1F4FF4E058
:101CC000EF0EF11C00331105D1F6DF91CF911F917A
:101CD0000F91FF90EF90DF900895AF92BF92CF9257
:101CE000DF92EF92FF920F931F93CF93DF931F9298
:101CF000CDB7DEB7D82E2091EB04221F2227221F5A
:101D00008091EC04982F990FB22EB92A87FB88276F
:101D100080F9EB2DF82FCF018C549F4F68E671E0CE
:101D20000E9462349C012E1B3F0B37FF02C02D5FC7
:101D30003F4F3595279535952795A22EC090ED04F8
:101D40000091CB031091CC032091CD033091CE03B1
:101D50009091EF04992359F0692F70E08AE090E0A8
:101D60000E946234CB01770FAA0BBB0B04C08AE040
:101D700090E0A0E0B0E080239123A223B323892B3D
:101D80008A2B8B2B41F40E94C83460E370E00E94E0
:101D90006234082F01C00FEFE12CF12C10E0D110BC
:101DA00003C0E016F106A9F40E94C83483706B2DBD
:101DB0008A9D600D112469830E94C83469817C2D3D
:101DC0008091EE040E94220D472F282FC7010E9408
:101DD000D70D8FEFE81AF80A80E3E816F104F9F658
:101DE0000F90DF91CF911F910F91FF90EF90DF90B7
:101DF000CF90BF90AF900895CF92DF92EF92FF9275
:101E00001F93CF93DF938091CB039091CC03A0914C
:101E1000CD03B091CE030090EF0404C0880F991F4A
:101E2000AA1FBB1F0A94D2F7182F8AE1C82E81E09F
:101E3000D82EC0E0D0E09FE3E92EF12CF60180819E
:101E40008F3FE1F0FE01E051FB4F8081F4E08F9F76
:101E5000C00111248034910524F4B701681B790B6B
:101E600002C060E070E0610F7FEF8091EE040E949D
:101E7000220D472F282FCE010E94D70D219624E056
:101E8000C20ED11CC033D105C9F6DF91CF911F918D
:101E9000FF90EF90DF90CF900895CF92DF92EF9276
:101EA000FF920F931F93CF93DF938091CB03909179
:101EB000CC03A091CD03B091CE030090EF0404C0F9
:101EC000880F991FAA1FBB1F0A94D2F7D82EC09063
:101ED000EE040AE111E0C0E0D0E08FE3E82EF12C3F
:101EE000F80180818F3FF9F0FE01E051FB4F208126
:101EF000F4E02F9F90011124203431052CF4C70108
:101F0000821B930B9C0102C020E030E0F80161814C
:101F10006D0D620F7FEF8C2D0E94220D472F282F11
:101F2000CE010E94D70D21960C5F1F4FC033D10503
:101F3000B9F6DF91CF911F910F91FF90EF90DF9055
:101F4000CF900895CF92DF92EF92FF920F931F935D
:101F5000CF93DF938091CB039091CC03A091CD03DD
:101F6000B091CE030090EF0404C0880F991FAA1F00
:101F7000BB1F0A94D2F7D82EC090EE040AE111E0FC
:101F8000C0E0D0E08FE3E82EF12CF80180818F3F94
:101F9000F9F0FE01E051FB4F2081F4E02F9F90010A
:101FA0001124203431052CF4C701821B930B9C01B2
:101FB00002C020E030E0F80162816D0D620F7FEF1A
:101FC0008C2D0E94220D472F282FCE010E94D70D65
:101FD00021960C5F1F4FC033D105B9F6DF91CF9129
:101FE0001F910F91FF90EF90DF90CF9008952F9267
:101FF0003F924F925F926F927F928F929F92AF9299
:10200000BF92CF92DF92EF92FF920F931F93CF93E5
:10201000DF933090ED042090EE046091CB0370913B
:10202000CC038091CD039091CE030E94C3322BED5F
:102030003FE049E450E40E94903320E030E040E08B
:102040005CE30E9490336B017C010E94163220E019
:1020500030E040E05DE30E9490332B013C01C7017A
:10206000B6010E94FD3320E030E040EE52E40E94D1
:102070001B324B015C01CCE1D1E000E010E0688153
:1020800070E080E090E00E94C53220E030E040E067
:1020900052E40E94A931A30192010E9490336B0186
:1020A0007C01FE013197608170E080E090E00E9449
:1020B000C53220E030E040EE52E40E94A931A50193
:1020C00094010E9490339B01AC01C701B6010E94AC
:1020D000AA3120E030E044E353E40E9490336B01E6
:1020E0007C018091EB04881F8827881F9091EC0465
:1020F000292F220F622F682B97FB772770F9072E65
:10210000000C880B990B0E94C5329B01AC01C701E2
:10211000B6010E94AA310E949432732D822D0E9432
:10212000220D472F282FC8010E94D70D0F5F1F4F88
:1021300024960033110509F0A2CFDF91CF911F91B2
:102140000F91FF90EF90DF90CF90BF90AF909F9056
:102150008F907F906F905F904F903F902F90089559
:102160002F923F924F925F926F927F928F929F92A7
:10217000AF92BF92CF92DF92EF92FF920F931F9395
:10218000CF93DF93CDB7DEB728970FB6F894DEBFB5
:102190000FBECDBF8091ED048D839091EE049E83A0
:1021A0006091CB037091CC038091CD039091CE03CD
:1021B0000E94C3322BED3FE049E450E40E9490338B
:1021C00020E030E040E05CE30E9490336B017C0152
:1021D0000E9416322B013C01C701B6010E94FD335B
:1021E00069837A838B839C83ECE1F1E0F887EF834A
:1021F00000E010E0EF81F88531972080EF81F885CD
:10220000B0803090EF04332079F0632D70E080E0EF
:1022100090E00E94C53220E030E040EC5FE30E9495
:1022200090336B017C0106C0C12CD12C90ECE92EBF
:102230009FE3F92E6B2D70E080E090E00E94C532A4
:1022400020E030E040E052E40E94A9319B01AC0163
:10225000C701B6010E949033A30192010E949033FE
:102260004B015C01332079F0632D70E080E090E059
:102270000E94C53220E030E040EC5FE30E949033E2
:102280006B017C0106C0C12CD12C80ECE82E8FE3C1
:10229000F82E622D70E080E090E00E94C53220E0D0
:1022A00030E040EE52E40E94A9319B01AC01C7012D
:1022B000B6010E94903329813A814B815C810E9452
:1022C00090339B01AC01C501B4010E94AA316B019E
:1022D0007C018091EB04881F8827881F9091EC0473
:1022E000292F220F622F682B97FB772770F9072E73
:1022F000000C880B990B0E94C5329B01AC01C701F1
:10230000B6010E94AA310E9494327D818E810E9482
:10231000220D472F282FC8010E94D70D0F5F1F4F96
:102320008F819885049698878F830033110509F073
:1023300061CF28960FB6F894DEBF0FBECDBFDF91F8
:10234000CF911F910F91FF90EF90DF90CF90BF90B2
:10235000AF909F908F907F906F905F904F903F9045
:102360002F9008952F923F924F925F926F927F929B
:102370008F929F92AF92BF92CF92DF92EF92FF9295
:102380000F931F93CF93DF9300D000D01F92CDB750
:10239000DEB72091ED042A838091EE048B83609157
:1023A000CB037091CC038091CD039091CE030E941A
:1023B000C3322BED3FE049E450E40E94903320E02B
:1023C00030E040E05CE30E9490336B017C010E94AE
:1023D00016322B013C01C701B6010E94FD334B01AF
:1023E0005C01ACE1B1E0BD83AC8300E010E0EC81C6
:1023F000FD813197B081B983EC81FD8130802090DF
:10240000EF04222069F0622D70E0660F771F072E1F
:10241000000C880B990B0E94C5326B017C0105C032
:10242000C12CD12CE12C20E4F22E632D70E080E051
:1024300090E00E94C53220E030E040E052E40E948B
:10244000A9319B01AC01C701B6010E949033A301E1
:1024500092010E9490336B017C01222021F0312CEB
:10246000220C331C03C082E0282E312CF9816F2FFF
:1024700070E080E090E00E94C53220E030E040EE65
:1024800052E40E94A9310E948D329B0177FF04C063
:1024900022273327261B370B82E490E0821B930B05
:1024A000289EB001299E700D389E700D1124072EB4
:1024B000000C880B990B0E94C532A50194010E9463
:1024C00090339B01AC01C701B6010E94AA316B0198
:1024D0007C018091EB04881F8827881F9091EC0471
:1024E000292F220F622F682B97FB772770F9072E71
:1024F000000C880B990B0E94C5329B01AC01C701EF
:10250000B6010E94AA310E9494327A818B810E9486
:10251000220D472F282FC8010E94D70D0F5F1F4F94
:102520008C819D8104969D838C830033110509F075
:102530005ECF0F900F900F900F900F90DF91CF9183
:102540001F910F91FF90EF90DF90CF90BF90AF90D1
:102550009F908F907F906F905F904F903F902F90C3
:1025600008952F923F924F925F926F927F928F9237
:102570009F92AF92BF92CF92DF92EF92FF920F9312
:102580001F93CF93DF9300D01F92CDB7DEB720907B
:10259000ED048091EE0489836091CB037091CC03AC
:1025A0008091CD039091CE030E94C33220E030E0B1
:1025B00040E85BE30E94903320E030E040E653E4E3
:1025C0000E9490332B013C01ECE1F1E0FB83EA83B4
:1025D00000E010E0EA81FB8131973080EA81FB81E5
:1025E000E080F090EF04FF2079F06F2D70E080E044
:1025F00090E00E94C53220E030E040EC5FE30E94B2
:1026000090334B015C0106C0812C912C90ECA92EDB
:102610009FE3B92E6E2D70E080E090E00E94C532FD
:1026200020E030E040E052E40E94A9310E948D3267
:102630009B0177FF04C022273327261B370BB901E4
:10264000330F880B990B0E94C5329B01AC01C50169
:10265000B4010E9490332EE23DEB4BEB53EB0E9412
:1026600090334B015C01FF2079F06F2D70E080E02A
:1026700090E00E94C53220E030E040EC5FE30E9431
:1026800090336B017C0106C0C12CD12C80ECE82E6C
:102690008FE3F82E632D70E080E090E00E94C53259
:1026A000A30192010E94A9319B01AC01C701B601AF
:1026B0000E9490339B01AC01C501B4010E94A93175
:1026C0006B017C018091EB04881F8827881F909103
:1026D000EC04292F220F622F682B97FB772770F9C4
:1026E000072E000C880B990B0E94C5329B01AC0190
:1026F000C701B6010E94AA310E949432722D8981CD
:102700000E94220D472F282FC8010E94D70D0F5F6E
:102710001F4F8A819B8104969B838A830033110516
:1027200009F058CF0F900F900F90DF91CF911F912C
:102730000F91FF90EF90DF90CF90BF90AF909F9060
:102740008F907F906F905F904F903F902F90089563
:10275000CF92DF92FF920F931F93CF93DF931F923D
:10276000CDB7DEB7F82E0091CB031091CC032091AA
:10277000CD033091CE039091EF04992359F0692F46
:1027800070E08AE090E00E946234AB01770F660B44
:10279000770B04C04AE050E060E070E04023512332
:1027A00062237323452B462B472B39F40E94C834F0
:1027B00060E370E00E94623401C08FEF00E010E03F
:1027C000C82ED12CF11003C00C151D0581F40E94F8
:1027D000C83489830E94C834782F69818091EE04BF
:1027E0000E94220D472F282FC8010E94D70D0F5F8E
:1027F0001F4F0033110531F70F90DF91CF911F91DB
:102800000F91FF90DF90CF900895089508950E9452
:1028100005140C9406144091EB0440FD0AC00E947C
:10282000E10D0E9407148091EB04817080930701F1
:1028300008958091C503843120F48F5F8093C50390
:1028400008958091CB039091CC03A091CD03B091DA
:10285000CE030196A11DB11D8093CB039093CC03B1
:10286000A093CD03B093CE038091C7039091C8038A
:10287000A091C903B091CA038F3F2FEF9207A2071F
:10288000B20759F00196A11DB11D8093C703909323
:10289000C803A093C903B093CA038091C603E0EFB5
:1028A000F4E090819F3F61F09E3F41F4282F30E09B
:1028B0002230310514F0815001C080E09F5F908389
:1028C000319695E0E032F90761F78093C603E42F73
:1028D000E695EF7380910601E81307C081E09091BF
:1028E0000701913019F480E001C081E08170E0932C
:1028F000060191E0909307014E2F50E0FA013197C5
:10290000EB30F10520F5EA58FF4F0C9476340E9425
:10291000E60D1DC00E94F70F1AC00E94FB0D17C0E4
:102920000E946D0E14C00E94FC0E11C00E944D0F3B
:102930000EC00E94A20F0BC00E94B01008C00E94DF
:10294000B21105C00E94B11202C00E94A8130C94DB
:102950000714E0914203F09143030995E0EFF4E09E
:102960008FEF819395E0E032F907D9F70E94352681
:10297000811104C00E94A3260E94C20D0E94B80DBE
:102980006093EB047093EC048093ED049093EE0459
:102990006E7761F40E94C20D0E94B80D6093EB0443
:1029A0007093EC048093ED049093EE040895EBEEA5
:1029B000F4E08081982F909590FB80F9808360816E
:1029C0007181828193810C94BC0D9091EB04892FCD
:1029D00086958F5F8F7391788C3018F4880F892BD0
:1029E00002C0892F82608093EB046091EB047091A8
:1029F000EC048091ED049091EE040C94BC0D909148
:102A0000EB04892F8695815C8F739178882319F068
:102A1000880F892B02C0892F86618093EB04609117
:102A2000EB047091EC048091ED049091EE040C9411
:102A3000BC0D8091EB04982F991F9927991F8091C5
:102A4000EC04880F892B90E008968F3F910519F0D0
:102A500014F08FEF90E02091EB0480FB27F9209396
:102A6000EB04282F26958091EC048078822B90FB34
:102A700087F98093EC046091EB047091EC048091F1
:102A8000ED049091EE040C94BC0D8091EB04982F12
:102A9000991F9927991F8091EC04880F892B90E04A
:102AA000089797FF02C080E090E08F3F910519F0F2
:102AB00014F08FEF90E02091EB0480FB27F9209336
:102AC000EB04282F26958091EC048078822B90FBD4
:102AD00087F98093EC046091EB047091EC04809191
:102AE000ED049091EE040C94BC0D8091ED0490E007
:102AF00008968F3F910519F014F08FEF90E08093C6
:102B0000ED046091EB047091EC048091ED049091E0
:102B1000EE040C94BC0D8091ED0490E0089797FFB3
:102B200002C080E090E08F3F910519F014F08FEF24
:102B300090E08093ED046091EB047091EC0480913F
:102B4000ED049091EE040C94BC0D8091EE0490E0A5
:102B500008968F3F910519F014F08FEF90E0809365
:102B6000EE046091EB047091EC048091ED0490917F
:102B7000EE040C94BC0D8091EE0490E0089797FF52
:102B800002C080E090E08F3F910519F014F08FEFC4
:102B900090E08093EE046091EB047091EC048091DE
:102BA000ED049091EE040C94BC0D8091EF0490E044
:102BB00001968430910514F083E090E08093EF0457
:102BC0006091EB047091EC048091ED049091EE041F
:102BD0000C94BC0D8091EF0490E0019797FF02C028
:102BE00080E090E08430910514F083E090E08093E1
:102BF000EF046091EB047091EC048091ED049091EE
:102C0000EE040C94BC0DEBEEF4E08F73982F990F4B
:102C100080818178892B8083608171818281938119
:102C20000C94BC0D8091EB0486958F73089567E733
:102C300084E70C94EC17CF930E942B1884E70E9432
:102C4000711687E70E947116C0E021E041E061E063
:102C50008C2F0E940317CF5FC033B9F767E784E773
:102C6000CF910C94FF17E0E4F6E06083418324E603
:102C700030E042E050E0BF01880F0C940119EF9260
:102C8000FF921F93CF93DF937B01182F110FC0E0AA
:102C9000D0E08C2F8C5D8093400620E030E0F9017D
:102CA000EC0FFD1FEE0DFF1D8081F901E05CF94F77
:102CB00081832F5F3F4F2031310589F724E630E0D3
:102CC00041E150E060E476E0812F0E9401196096B6
:102CD000C039D105F1F6DF91CF911F91FF90EF90B0
:102CE0000895CF93DF93C82F4BE06DEF0E9433160A
:102CF00040E06AE08C2F0E9433168FE39CE9019735
:102D0000F1F700C0000040E060E08C2F0E94331615
:102D100040E061E08C2F0E94331640E066E08C2F8B
:102D20000E94331640E06DEF8C2F0E943316D0E0E6
:102D300040E06D2F8C2F0E943316DF5FD231C1F738
:102D400040E06D2F8C2F0E943316DF5FD432C1F725
:102D500040E06D2F8C2F0E943316DF5FD43BC1F70C
:102D60004BE06DEF8C2F0E94331641E06AE08C2F10
:102D70000E94331640E06DEF8C2FDF91CF910C94C1
:102D800033168033910520F5880F991F880F991FFE
:102D9000FC01E652FE4F5281338180818370718144
:102DA000E0E98E9FC0011124805E9A4FFC01E70F7D
:102DB000F11DB4976083FC01E50FF11DB4974083CA
:102DC000830F911DFC01B497208381E08093F4036D
:102DD0000895FF920F931F93CF93DF93182F062F21
:102DE000F42EC0E0D0E02F2D402F612FCE010E94A5
:102DF000C1162196C033D105B1F7DF91CF911F9154
:102E00000F91FF9008954F925F927F928F929F92C1
:102E1000AF92BF92CF92DF92EF92FF920F931F93E8
:102E2000CF93DF93362F54E0859FC0011124FC011E
:102E3000E652FE4FA081A3707A2E618170E0CB0133
:102E400084978C0197FF02C0095F1F4FA3E015957F
:102E50000795AA95E1F7628170E07B0154E2E51ADB
:102E6000F108E701F7FC279673E0D595C7957A95A9
:102E7000E1F7638170E04B01E4E28E1A9108F401FE
:102E800097FC37962F0153E0559447945A95E1F7F4
:102E900068E0A62EB12CB5010E9462346C01C70116
:102EA000B5010E9462347C01C401B5010E94623404
:102EB000A72DB0E01127DD243323A1F032E13A9FA2
:102EC000B0013B9F700D1124060F171F00531C4FBC
:102ED00061E070E001C0660FCA94EAF7F801308142
:102EE000632B14C032E13A9FB0013B9F700D112457
:102EF000060F171F00531C4F61E070E001C0660F02
:102F0000CA94EAF76095F801308163236083DD2776
:102F1000FF2432E1442391F03A9FA0013B9F500DE2
:102F20001124C40FD51FC053DC4F41E050E001C055
:102F3000440FEA94EAF73881432B12C03A9FA0016C
:102F40003B9F500D1124C40FD51FC053DC4F41E0EF
:102F500050E001C0440FEA94EAF7409538814323DA
:102F60004883A2015527992792E19A9FF0019B9FE0
:102F7000F00D1124E40FF51FE053FC4F222361F004
:102F800021E030E0A90102C0440F551F8A95E2F705
:102F9000CA019081892B0CC021E030E0A90102C058
:102FA000440F551F8A95E2F7CA01809590818923C5
:102FB000808381E08093CF03DF91CF911F910F91A8
:102FC000FF90EF90DF90CF90BF90AF909F908F9049
:102FD0007F905F904F900895CF939091F403992341
:102FE00051F0C62F60E275E00E943F1660EB75E07D
:102FF0008C2F0E943F161092F403CF910895EF9208
:10300000FF920F931F93CF93DF939091CF03992358
:10301000D9F0162F082F80EDE82E83E0F82EC0E0BF
:10302000D0E0F70141917F016C2F802F0E94331671
:10303000FE01E053FC4F42896C2F812F0E94331612
:103040002196C231D10569F7DF91CF911F910F9180
:10305000FF90EF9008951092B9008CE08093B80033
:103060000895EF92FF920F931F93CF93DF93182F42
:10307000EB011092BC0084EA8093BC000E94B72749
:103080007C019091BC0097FD0EC0CF3F8FEFD80719
:10309000C1F30E94B7278E199F098C179D0788F3EB
:1030A0008EEF9FEF2EC09091B900987F983041F03D
:1030B0009091B900987F903119F08FEF9FEF21C068
:1030C0001093BB0084E88093BC000E94B7278C015A
:1030D0009091BC0097FD0CC0CF3F8FEFD807C1F394
:1030E0000E94B727801B910B8C179D0788F3D8CFC0
:1030F0008091B900887F883111F08034F1F680E04A
:1031000090E0DF91CF911F910F91FF90EF90089584
:103110000F931F93CF93DF93EB018093BB0084E861
:103120008093BC000E94B7278C019091BC0097FD52
:103130000EC0CF3F8FEFD807C1F30E94B727801B87
:10314000910B8C179D0788F38EEF9FEF0CC0209199
:10315000B900287F81E090E0283211F480E090E00F
:10316000919581959109DF91CF911F910F910895CC
:103170000F931F93CF93DF93EC0184E88093BC00FF
:103180000E94B7278C019091BC0097FD0EC0CF3FE5
:103190008FEFD807C1F30E94B727801B910B8C17C4
:1031A0009D0788F38EEF9FEF03C08091BB0090E0F6
:1031B000DF91CF911F910F9108950F931F93CF939C
:1031C000DF93EC0184E98093BC000E94B7278C0157
:1031D0009091BC0094FF0EC0CF3F8FEFD807C1F392
:1031E0000E94B727801B910B8C179D0788F38EEFE9
:1031F0009FEF02C080E090E0DF91CF911F910F918F
:103200000895CF92DF92EF92FF920F931F93CF9387
:10321000DF936B017A018901B9010E943118FC0129
:10322000892BC9F4E601EC0CFD1CCE15DF0541F03D
:10323000B80189910E948818FC01892BB1F30BC059
:10324000C801DF91CF911F910F91FF90EF90DF9018
:10325000CF900C94DD18CF01DF91CF911F910F918A
:10326000FF90EF90DF90CF9008959093FA038093B2
:10327000F9030895E091F903F091FA03309721F0F2
:103280000190F081E02D099480E00895E091F90328
:10329000F091FA03309799F020911901222359F007
:1032A00020915A0627FF07C0DC012C9111962C9320
:1032B000119725E02C930280F381E02D0994089565
:1032C000E091F903F091FA03309739F022E0DC0144
:1032D0002C930480F581E02D099408952091F70343
:1032E0003091F8038217930771F09093F80380935D
:1032F000F703E091F903F091FA03309721F006808B
:10330000F781E02D099408952091F5033091F6039B
:103310008217930771F09093F6038093F503E09181
:10332000F903F091FA03309721F00084F185E02D44
:103330000994089585B7806885BF85B7806885BF83
:10334000089508950E949A190C94A11981E0089596
:103350000E94AE270E943B040C944528CF92DF9236
:10336000EF92FF920F931F93CF93DF93CDB7DEB70A
:103370002B970FB6F894DEBF0FBECDBF0E940D0590
:103380000E94A619811111C08FEF89838A831B8245
:103390000E94B7278160782F9D838C8349815A8151
:1033A0006B818D810E94921A56C08CEFC82E83E0EB
:1033B000D82E00E010E0E02E802F0E945505F60187
:1033C00041916F01F42EF82631F40F5F1F4F0E303C
:1033D000110589F7D9CF9091B70491FF04C08B876D
:1033E0000E945B058B8520E030E04F2D50E0922F4E
:1033F000BA01022E02C0759567950A94E2F760FF44
:1034000024C02E83EF8221E030E0690102C0CC0CA1
:10341000DD1C9A95E2F790E08C219D21892B09F41F
:1034200020E028870E94B7278160782F9A878987B4
:103430004E815F8168858A850E94921AF801E45066
:10344000FC4F8081C826C08206C02F5F3F4F2630C8
:10345000310569F6BACF0E94D8291091FB030E946A
:103460003A191817A1F00E943A198093FB032B9682
:103470000FB6F894DEBF0FBECDBFDF91CF911F9185
:103480000F91FF90EF90DF90CF900C942F072B9629
:103490000FB6F894DEBF0FBECDBFDF91CF911F9165
:1034A0000F91FF90EF90DF90CF900895DC0111967F
:1034B0002C9111978C91682F70E041E050E001C091
:1034C000440F8A95EAF712968C91129730E0882380
:1034D00029F080911A048823E9F006C0F901E65F1B
:1034E000FB4F90819423B1F086E0829FF001839F8F
:1034F000F00D1124E60FF71FEE0FFF1FE656FD4FEC
:10350000808191818D939C93F901E65FFB4F8081CF
:10351000482B06C0F901E65FFB4F409580814823A8
:1035200040830895CF93DF93CDB7DEB72B970FB6C7
:10353000F894DEBF0FBECDBF942F4F83252F588741
:1035400069877A878B874A855B85452B21F02F3FDA
:1035500009F59F3FF9F4DE01119686E0FD01119215
:103560008A95E9F785E0FE01379601900D928A95DC
:10357000E1F749815A816B817C818D819E810E9416
:1035800026222B960FB6F894DEBF0FBECDBFDF917B
:10359000CF910895CE0107960E94561ADCCFFC0108
:1035A000808191810E94F32492959F70963041F41E
:1035B00080911A0491E0892780931A04909319044A
:1035C0000895882309F41AC18238C1F40E943A1977
:1035D00081FD14C169E380910801909109010E9465
:1035E0000A270E9481252FEF81EE94E02150804030
:1035F0009040E1F700C0000069E319C08338F9F496
:103600000E943A1980FDFAC063E58091080190910B
:1036100009010E940A270E9481252FEF81EE94E084
:10362000215080409040E1F700C0000063E58091A8
:103630000801909109010E9415270C948125843876
:10364000C1F40E943A1982FDD9C067E48091080153
:10365000909109010E940A270E9481252FEF81EE97
:1036600094E0215080409040E1F700C0000067E402
:10367000DECF9CEF980F913A40F4682F80910801BB
:10368000909109010E940A27D8CF90E2980F9830B4
:1036900050F4877091E001C0990F8A95EAF7892F5D
:1036A0000E943525CACF9BE5980F933070F4853A78
:1036B00029F0863A31F083E890E005C081E890E097
:1036C00002C082E890E00C946E1998E5980F97314B
:1036D00008F08EC0883A09F445C0893A09F445C01B
:1036E0008A3A09F445C08B3A09F445C08C3A09F48A
:1036F00045C08B3B09F445C08C3B09F445C08D3A6D
:1037000009F445C0803B09F445C08E3A09F445C030
:103710008F3A09F445C0813B09F445C0823B09F466
:1037200045C0833B09F445C0843B09F445C0853B53
:1037300009F445C0863B09F445C0873B09F445C000
:10374000883B09F445C0893B09F445C08D3B09F429
:1037500045C08E3B09F445C08A3B09F445C080E072
:1037600090E044C082EE90E041C089EE90E03EC01F
:103770008AEE90E03BC085EB90E038C086EB90E0AD
:1037800035C083EB90E032C084EB90E02FC087EB34
:1037900090E02CC08CEC90E029C08DEC90E026C02D
:1037A00083E891E023C08AE891E020C082E991E0BB
:1037B0001DC084E991E01AC081E292E017C083E263
:1037C00092E014C084E292E011C085E292E00EC063
:1037D00086E292E00BC087E292E008C08FE690E0BC
:1037E00005C080E790E002C08AE292E00C94841960
:1037F000803F20F00E94E0280C94CD290895882372
:1038000009F464C0823879F40E943A1981FF5EC0DD
:1038100069E380910801909109010E940A270E94A2
:10382000812569E310C08338B1F40E943A1980FF02
:103830004DC063E580910801909109010E940A271B
:103840000E94812563E580910801909109010E9401
:1038500015270C948125843879F40E943A1982FF47
:1038600035C067E480910801909109010E940A2700
:103870000E94812567E4E7CF9CEF980F913A10F4FE
:10388000682FE1CF90E2980F983050F4877091E064
:1038900001C0990F8A95EAF7892F0E943B25D9CF5D
:1038A0009BE5980F933020F480E090E00C946E1923
:1038B00098E5980F973120F480E090E00C948419FB
:1038C000803F20F00E9448290C94CD290895CF9381
:1038D000C82F0E94E11A8C2FCF910C94FF1B8823D4
:1038E00021F00E9435250C9481250895882321F02C
:1038F0000E943B250C94812508958F929F92AF9250
:10390000BF92DF92EF92FF920F931F93CF93DF93BB
:103910007C01D62FC72FFC01058102950F70128103
:1039200011110E9455250E942B25882379F011231F
:1039300069F080E28D0F883048F082E00E94CC254B
:103940000E942B2591E0D82ED92601C0D12CAC2E77
:10395000A2948FE0A822B12CF501EF57FF4F0C94F1
:1039600076348C2F807FCF70882311F0C295C07F72
:10397000112399F0CC2309F4C8C180E28D0F88305F
:1039800010F0D11104C08C2F0E94352503C08C2F5C
:103990000E9448250E948125B8C18D2F0E94FF1BDF
:1039A000CC2309F42EC280E28D0F883010F0D111A3
:1039B00004C08C2F0E943B2503C08C2F0E944E25F3
:1039C0000E9481251EC28C2F807FCF70803211F023
:1039D000C295C07FDD2319F0D130C9F021C0112379
:1039E00071F0002341F0013031F40E9468258C2BE6
:1039F0000E946E2506C20E9468258C2B3FC10023C1
:103A000019F0013009F4FDC10E94772511C011237E
:103A100021F0023008F0F5C107C00111F2C108C061
:103A2000112321F0011171C18C2F28C101117EC118
:103A30008C2F2AC18C2F86958695837090E00097F5
:103A400019F0019761F0DDC1112321F08D2F9C2F1A
:103A5000937002C080E090E00E946E19E2C11123D1
:103A600021F08D2F9C2F937002C080E090E00E9487
:103A70008419D7C11123F9F0D53F51F0D63F71F029
:103A8000D43FA9F4809154069091550681600BC0F3
:103A90008091540690915506826005C0809154062D
:103AA00090915506846090935506809354068D2F0F
:103AB0000E94E0281EC0D53F51F0D63F71F0D43FA0
:103AC000A9F480915406909155068E7F0BC0809189
:103AD0005406909155068D7F05C0809154069091B3
:103AE00055068B7F90935506809354068D2F0E9428
:103AF00048290E94CD2995C18C2F837009F050C0B0
:103B000011118BC18D2F829586958770880F880F34
:103B10009D2F9F70892E912CA12CB12C082E04C0B2
:103B2000880C991CAA1CBB1C0A94D2F7D4FF14C0A1
:103B30000FE010E020E030E0B901A80104C0440F1C
:103B4000551F661F771F8A95D2F7CB01BA01609582
:103B500070958095909503C060E070E0CB01C695AC
:103B6000C695C370D0E0C230D10561F0C330D10535
:103B700081F0682979298A299B29219771F00E946F
:103B80006B234BC1682979298A299B290E947D23AF
:103B900044C10E946B23C501B4010E9459233DC159
:103BA000112319F08C2F817001C08695882309F4A8
:103BB00034C18D2F829586958770880F880F9D2F31
:103BC0009F70892E912CA12CB12C082E04C0880C3A
:103BD000991CAA1CBB1C0A94D2F7D4FF14C00FE096
:103BE00010E020E030E0B901A80104C0440F551FE7
:103BF000661F771F8A95D2F7CB01BA016095709541
:103C00008095909503C060E070E0CB01C695C695A5
:103C1000C3704C2F50E04230510569F043305105DC
:103C200089F0682979298A299B294130510571F049
:103C30000E943024F2C0682979298A299B290E9490
:103C40004224EBC00E943024C501B4010E941E240E
:103C5000E4C08D2F90E0FC01E05EF109E531F10553
:103C600008F04FC0EF56FF4F0C947634DF708C2F66
:103C70008F71112331F00E94B7238D2F0E946F1C8A
:103C8000C0C00E94D8238D2F0E94761CBAC0112379
:103C900039F00111B6C08C2F8F710E94FD23B1C085
:103CA000023008F0AEC0F7CF112339F08C2F8F719E
:103CB0000E94B723A6C01123C9F38C2F8F710E94D5
:103CC000D8239FC0112329F08C2F8F710E94A2232B
:103CD00098C00E949D2395C0112349F0CF718C2F6D
:103CE0000E94B72363E08C2F0E94B7258AC081E031
:103CF0000E94CC25023008F484C082E00E94CC25CA
:103D000080C0112331F0002389F28D2F0E94E11A27
:103D100078C0002391F2D93349F45FEF67EE73E086
:103D2000515060407040E1F700C000008D2F0E94AC
:103D3000FF1B67C04C2F4F706D2FC7010E944506B7
:103D40000E94CA226EC0D23FB1F028F4D03F49F0A1
:103D5000D13FF9F028C0D43FB9F058F0D53F71F009
:103D600022C0112309F447C090911A0481E08927E9
:103D700008C081E0182710931A043DC011113BC000
:103D800081E080931A0437C0111135C010921A04D3
:103D900032C0112329F080911904882329F329C006
:103DA000002311F328C0809119040023C1F0882357
:103DB00041F090911A0481E0892780931A041092AF
:103DC00019048D2F112319F00E94E11A14C00E94CA
:103DD000FF1B86E0F70111928A95E9F70CC0882352
:103DE00051F0111108C090911A0481E08927809345
:103DF0001A04109219044C2F4F706D2FC7010E94A6
:103E0000DB09F8E0AF16B10441F05CF04AE0A41A17
:103E1000B10852E0A516B10420F40E943A190E949C
:103E20002F07DD20E1F00E94272580FD18C0F70153
:103E300012820E9421250E94B723C7010E943B1FC6
:103E40000E942125DF91CF911F910F91FF90EF905C
:103E5000DF90BF90AF909F908F900C94D823DF910C
:103E6000CF911F910F91FF90EF90DF90BF90AF9097
:103E70009F908F9008950F931F93CF93DF93EC0142
:103E8000888199812B813C81232BB9F09F3F11F4CC
:103E90008F3F99F0CE010E944107882371F068811D
:103EA00079818A810E94FE248C010E9454240E9400
:103EB0005623B801CE010E947D1CDF91CF911F9146
:103EC0000F9108950E9455250E9465250E94812525
:103ED0000E94732A0E94CD2980E090E00E946E1912
:103EE00080E090E00C948419809108019091090180
:103EF0000E9420270C94621F0E9445250C94741F79
:103F0000E92FE295EF70F0E03297EE30F105B0F472
:103F1000EA55FF4F0C947634803F91F018F4803EC0
:103F200068F40EC0843F51F40BC0803E48F0813FDE
:103F300029F406C093FB882780F9089580E008954E
:103F400081E008950E94F3240E94801F0895CF937A
:103F5000DF9300D000D01F92CDB7DEB70F900F9047
:103F60000F900F900F90DF91CF910895CF93DF9333
:103F700000D000D000D0CDB7DEB726960FB6F894AB
:103F8000DEBF0FBECDBFDF91CF9108951F93CF93BA
:103F9000DF93C0911B0416E080911C04C81799F0B0
:103FA000D0E01C9FF0011D9FF00D1124E35EFB4F3C
:103FB0004081518162817381848195810E94B61F05
:103FC0002196C770E9CFDF91CF911F91089540915D
:103FD0004D0450914E0460914F04709150048091B3
:103FE0005104909152040C94B61F80915204829512
:103FF0008F7009F054C080914F04882309F44FC09A
:1040000080911B04A0911C0460914D0470914E049A
:104010004091500450915104B6E08A1709F43FC012
:1040200090E041155105C1F17F3F11F46F3FA1F1BF
:10403000B89FF001B99FF00D1124E35EFB4F218181
:1040400072132AC02081621327C02281211124C04B
:10405000238134812417350710F421503109241BA2
:10406000350B283C3105C0F4209152042F7020619B
:104070002093520426E0289FF001299FF00D11247F
:10408000EE5DFB4F80818F70806180838DE494E0D2
:104090000E943B1F0C94C61F01968770BECF0895E7
:1040A000CF92DF92EF92FF920F931F93CF93DF9304
:1040B000CDB7DEB762970FB6F894DEBF0FBECDBFA7
:1040C0008C0185E0F801DE011D9601900D928A9524
:1040D000E1F7D8014C9111965C91119712966C9171
:1040E00012971396CD90DC90149730914D047091F7
:1040F0004E048091500490915104009709F46BC1D3
:104100007F3F19F43F3F09F466C1E0904F04EE2071
:1041100009F4C0C020915204C816D90628F0F6014F
:10412000E81BF90BCF0104C0809590958C0D9D1D67
:10413000FF24F394883C910578F0F12C207F09F05E
:10414000C6C07C2DD98AC88A89890E94A71F8DE4A0
:1041500094E00E943B1FB1C0822F807F09F046C0CF
:10416000751314C0341312C0611110C02F70206178
:10417000209352040E94E71F8DE494E00E943B1FAD
:1041800080915204D80115968C932EC0CD2819F138
:104190005F3F11F44F3FF9F0F62E61111CC0809182
:1041A0001B0420911C0436E0821709F45AC090E0E9
:1041B000389FF001399FF00D1124E35EFB4F7181B0
:1041C000571306C07081471303C07281711103C079
:1041D00001968770E9CFF62E662309F427C18091F6
:1041E0005204816080935204F12C20C1751308C0E1
:1041F000341306C0611104C080915204D801C3C0B9
:104200004D875E878D859E856A8B0E94A21F6A8975
:104210008823E1F16623D1F120915204822F829507
:104220008F7090E0029774F080914D0490914E044D
:1042300098878F831986DB86CA862C87CE010796DE
:104240000E943B1F86E0F801ADE4B4E001900D92BE
:104250008A95E1F70E94F51F0E94E71FFF24F3945F
:10426000E5C04D875E878D859E850E94F324292FAA
:1042700022952F7030E0223031050CF0CBC09F70BA
:1042800009F0C5C0805E883008F4D0C0C8010E9423
:104290003B1FE4CFC816D90608F453C0F601E81B4B
:1042A000F90BCF01883C910508F450C0F12C7C2D0E
:1042B000D98AC88A89890E94A71FEDE4F4E086E0C4
:1042C000DF011D928A95E9F70E94E71FAFC07513C1
:1042D00014C0341312C0611110C080915204F8014F
:1042E0008583C8010E943B1F86E0EDE4F4E0DF0116
:1042F0001D928A95E9F7FE2C99C04D875E878D85C2
:104300009E856A8B0E94A21F6A89882309F4BECF0A
:10431000662309F4BBCF20915204822F82958F70BF
:1043200090E002970CF48ECF80914D0490914E0452
:104330009A8389831B82DD82CC822E83CE010196F3
:104340007FCF809590958C0D9D1DACCFF62E66236A
:1043500009F49CCF75132EC034132CC02091520445
:1043600020FD1FC0822F82958F70D9F0D80115963D
:104370002C9315978F3049F08F5F982F9295907FEF
:10438000822F8F70892B15968C93C8010E943B1F3A
:1043900086E0F801ADE4B4E001900D928A95E1F772
:1043A00093CF86E0F801ADE4B4E001900D928A95D8
:1043B000E1F73CC04D875E878D859E850E94A21FD8
:1043C000811140CF80915204816080935204C801D2
:1043D0000E943B1F2BC0662309F458CF4D875E8790
:1043E0008D859E850E94A21FF82E882309F44ECF4A
:1043F00086E0F801ADE4B4E001900D928A95E1F712
:104400008DE494E00E94CF1A0E94F51F5DCF8111C8
:1044100039CF0CC0243031050CF038CF9F7009F42F
:1044200031CFF8019581907F09F02CCF8F2D6296C6
:104430000FB6F894DEBF0FBECDBFDF91CF911F91B5
:104440000F91FF90EF90DF90CF9008951F93CF933F
:10445000DF93CDB7DEB72C970FB6F894DEBF0FBE53
:10446000CDBF4F83588769877A878B879C87CE011A
:1044700007960E945020882369F08F8198852A85AD
:104480003B85232BF1F19F3F09F063C08F3F09F07B
:1044900060C037C086E0FE013796DE0111960190BC
:1044A0000D928A95E1F76F817885EA85FB853097D3
:1044B00041F17F3F11F46F3F21F120911C0430E066
:1044C000C90101968770992740911B0450E0841719
:1044D000950709F447C069837A83FD83EC8396E0EE
:1044E000929FD001939FB00D1124A35EBB4FFE019C
:1044F000319601900D929A95E1F780931C040E94E9
:10450000C61F16E080911B0490911C048917C1F10D
:10451000189FC0011124835E9B4F0E945020882366
:1045200079F1E0911B041E9FF0011124E35EFB4F23
:104530004081518162817381848195810E94B61F7F
:1045400080911B0490E001968770992780931B044B
:10455000D9CF4F81588569857A858B859C850E9446
:10456000B61FCFCF0E947C1F10921C0410921B0418
:10457000EDE4F4E086E0DF011D928A95E9F7C1CF12
:104580002C960FB6F894DEBF0FBECDBFDF91CF9152
:104590001F910895EF92FF920F931F93CF93DF9394
:1045A0008C01892B09F46CC0F12CEE24E394E80112
:1045B0002196F8018491843740F4843008F051C08A
:1045C000813081F0823019F15BC0853709F444C035
:1045D000A8F19CE7980F903708F052C08F770E949F
:1045E000FF1B41C00E5F1F4FFE01C49180E28C0F84
:1045F000883048F4C7708E2D01C0880FCA95EAF73D
:104600000E94582514C08C2F0E94E11A2DC00E5F05
:104610001F4FFE01C49180E28C0F883058F4C770A0
:104620008E2D01C0880FCA95EAF70E945E250E9470
:1046300081251AC08C2F0E94FF1B16C00E5F1F4FD2
:10464000FE01C491CC2381F08FE99FE00197F1F73F
:1046500000C00000C150F6CF0E5F1F4FFE01F49066
:1046600003C00E94E11A8E018F2D882309F49FCF89
:10467000EFE9FFE03197F1F700C000008150F5CF7E
:10468000DF91CF911F910F91FF90EF9008950895C2
:104690000C9447230E94482360938E0470938F04E8
:1046A00080939004909391040C94621F08950C944D
:1046B0004A230F931F9300918E0410918F04209131
:1046C000900430919104602B712B822B932B1F91BE
:1046D0000F910C944A230F931F9300918E04109115
:1046E0008F042091900430919104602371238223E0
:1046F00093231F910F910C944A230F931F930091C2
:104700008E0410918F0420919004309191046027C1
:104710007127822793271F910F910C944A230C94A1
:104720006C060E948F2360938A0470938B0480939D
:104730008C0490938D040C94621F60E070E0CB01B8
:104740000C9491230F931F9341E050E060E070E0E0
:104750008A019B0104C0000F111F221F331F8A957D
:10476000D2F7C901B8011F910F910C9491230F93B7
:104770001F9341E050E060E070E004C0440F551F1B
:10478000661F771F8A95D2F780918A0490918B04D7
:10479000A0918C04B0918D048A019B01082B192BE8
:1047A0002A2B3B2BC901B8011F910F910C94912327
:1047B0000F931F9341E050E060E070E004C0440FAD
:1047C000551F661F771F8A95D2F7409550956095C3
:1047D000709580918A0490918B04A0918C04B09183
:1047E0008D048A019B01082319232A233B23C90135
:1047F000B8011F910F910C9491230F931F9341E0E7
:1048000050E060E070E004C0440F551F661F771F42
:104810008A95D2F780918A0490918B04A0918C04A0
:10482000B0918D048A019B01082719272A273B276D
:10483000C901B8011F910F910C9491230F931F93FD
:1048400000918A0410918B0420918C0430918D0486
:10485000602B712B822B932B1F910F910C94912322
:104860000F931F9300918A0410918B0420918C0464
:1048700030918D0460237123822393231F910F9124
:104880000C9491230F931F9300918A0410918B0431
:1048900020918C0430918D04602771278227932703
:1048A0001F910F910C9491230895292F220F920F9D
:1048B000990F890FA82FA695A695A695877051E008
:1048C00001C0550F8A95EAF785E0A89FD001112411
:1048D00020E030E070E0F901EA0FFB1FED5AFB4FDA
:1048E0004081CB01022E02C0969587950A94E2F78B
:1048F00081709927819584278523842780832F5F62
:104900003F4F2530310539F70895292F220F920F97
:10491000990F890F682F669566956695982F977001
:1049200085E0689FB001112440E050E080E0FA018A
:10493000E60FF71FED5AFB4F208130E0092E02C031
:10494000369527950A94E2F721703327042E01C08B
:10495000220F0A94EAF7822B4F5F5F4F45305105D3
:1049600031F70895BF92CF92DF92EF92FF920F93AB
:104970001F93CF93DF938C01C0908E04D0908F044F
:10498000E0909004F090910480918A0490918B04BF
:10499000A0918C04B0918D04C82AD92AEA2AFB2A56
:1049A000CFE1D0E0D701C6010C2E04C0B695A79583
:1049B000979587950A94D2F780FF07C0BC2EB8015F
:1049C0008C2F0E94F609019719F4219758F7B12C02
:1049D0008B2DDF91CF911F910F91FF90EF90DF9082
:1049E000CF90BF900895CF93DF93EC010E94B22443
:1049F000BE010E94F609DF91CF9108951F93CF93D6
:104A0000DF93EB0190911804992321F0CB010E94D0
:104A1000F32413C0882349F0CB010E94B224182F3D
:104A2000682FCE010E94552404C0CB010E9485242A
:104A3000182FBE01812F0E94F609DF91CF911F919F
:104A40000895809192048595859585950895809126
:104A500092048770089590919204977081E009F410
:104A600080E008958091B60408959091B604892B52
:104A70008093B604089580959091B604892380931D
:104A8000B60408958093B60408951092B60408956C
:104A90009091B504892B8093B504089580959091E9
:104AA000B50489238093B50408951092B504089540
:104AB0009091B404892B8093B404089580959091CB
:104AC000B40489238093B40408951092B404089523
:104AD00080919304089508950C946B25909193040C
:104AE000981721F0809393040C946C25089580917D
:104AF0009304882329F01092930480E00C946C2591
:104B00000895E0910801F09109018091B604808335
:104B1000E0910801F091090190818091B504892B01
:104B20008083E0910801F091090190818091B404A3
:104B3000892B808380919304882381F0E091080180
:104B4000F09109019081892B8083809108019091D7
:104B500009010E94A52681110E94772580910801F4
:104B6000909109010C94461908950C94B42598E08D
:104B7000899F90011124262B209392040E94B72331
:104B8000809192048595859585950C94B525109214
:104B9000920480E00C94B5252091920480958223A4
:104BA00080939204982F977079F430E0482F082E64
:104BB000000C550B2417350739F08595859585959B
:104BC0000E94D8230C94C7250895CF92DF92EF92CC
:104BD000FF926C01EE24FF24C114D104E104F1041E
:104BE00021F0C701B60120E101C020E0C72ED82E78
:104BF000E92EFF24C114D104E104F10419F0285F67
:104C0000C701B6016B017C0154E0F694E794D79498
:104C1000C7945A95D1F7C114D104E104F10419F0F5
:104C20002C5FC701B6016B017C0142E0F694E7946A
:104C3000D794C7944A95D1F7C114D104E104F10483
:104C400019F02E5FC701B601DC01CB01B695A7951F
:104C500097958795892B8A2B8B2B09F02F5F822FB5
:104C6000FF90EF90DF90CF90089580E090E00E9459
:104C7000E63421E08D3E9E4F09F020E0822F08951A
:104C800082E090E00C94D83483E090E00C94D83427
:104C900084E090E00C94D834682F84E090E00C9489
:104CA000EC34AB01BC018FE090E00C94FE34AB011E
:104CB000BC0183E190E00C94FE3460E070E0CB0135
:104CC0000C94572660E070E0CB010E9451260C94B2
:104CD0005D266DEE7EEF80E090E00E940A3560E098
:104CE00082E090E00E94EC3460E083E090E00E947B
:104CF000EC3410928E0410928F0410929004109253
:104D0000910460E084E090E00E94EC3460E085E093
:104D100090E00E94EC3460E086E090E00E94EC3489
:104D20006FEF87E090E00E94EC3440E050E0BA0181
:104D300088E090E00E94FE3460E08DE090E00E9408
:104D4000EC340C9462260C946926FC013296809116
:104D50001901882331F080915A0687FF02C09EE135
:104D600001C096E080E0915028F021912223D9F3F0
:104D70008F5FF9CF08959C01FC0132969FEF80E090
:104D80004191461789F09F3F19F4411101C0982FB6
:104D90008F5F8630A9F79F3F39F0F901E90FF11DC8
:104DA00097FDFA95628308950895FC01329608965E
:104DB0002081261301C010823196E817F907C1F748
:104DC0000895262F2695269526952E3168F4FC0108
:104DD000E20FF11D677021E030E001C0220F6A95FB
:104DE000EAF78281282B22830895262F269526957F
:104DF00026952E3170F4FC01E20FF11D677021E061
:104E000030E001C0220F6A95EAF7209582812823BD
:104E10002283089520911901222329F020915A0616
:104E200027FD0C94E1260C94BB2620911901222326
:104E300029F020915A0627FD0C94F5260C94D526CE
:104E400020911901FC013296222331F080915A06FB
:104E500087FF02C08EE101C086E0DF011D928A95C6
:104E6000E9F7089508950C9432270E943327809122
:104E70006006843049F11092B80420E488E190E0A3
:104E80000FB6F894A895809360000FBE2093600041
:104E900080E00E942F070E94332783B7817F8460C0
:104EA00083BF83B7816083BF7894889583B78E7FF3
:104EB00083BF0FB6F894A8958091600088618093B5
:104EC0006000109260000FBE08950895CF930E9475
:104ED00064040E940D050E946527C0E08C2F0E948B
:104EE0005505811104C0CF5FCE30C1F701C081E00C
:104EF000CF91089508950C947A270E947C1F0E94F8
:104F00003A190E942F070C947B271F920F920FB61D
:104F10000F9211248F939F93AF93BF938091B80406
:104F2000811113C08091560690915706A0915806A2
:104F3000B09159064196A11DB11D809356069093DC
:104F40005706A0935806B0935906BF91AF919F9111
:104F50008F910F900FBE0F901F90189582E084BD27
:104F600093E095BD9AEF97BD80936E0008952FB79B
:104F7000F8948091560690915706A0915806B091EA
:104F800059062FBF0895CF92DF92EF92FF920F93B1
:104F90001F932FB7F8944091560650915706609191
:104FA0005806709159062FBF6A017B01EE24FF2439
:104FB0008C0120E030E0C016D106E206F30610F4C2
:104FC000415051099A01281B390BC9011F910F91BA
:104FD000FF90EF90DF90CF90089578941F920F92FA
:104FE0000FB60F9211248F939F93AF93BF9380912D
:104FF000560690915706A0915806B0915906019611
:10500000A11DB11D8093560690935706A093580694
:10501000B0935906BF91AF919F918F910F900FBEA2
:105020000F901F901895F89481E08093E00080E243
:105030008093D800E9ECF0E010828FE19EE40197C4
:10504000F1F700C000001DBA109268001CBC10BE31
:105050001FBA10927A0010926E0010926F00109298
:105060007100109272001082ECEBF0E0108214B824
:1050700017B81AB81DB810BA108215B818B81BB8EE
:105080001EB811BA0C94003F08950E943526811174
:1050900002C00E94A3260E9440268093B7040E946B
:1050A000482690E090935B0680935A060E9444261F
:1050B000682F70E080E090E00C9457238091BC044E
:1050C00080FF0BC060910D0185E0689FB001112445
:1050D00075956795759567952BC081FF09C060919F
:1050E0000D0185E0689FB00111247595679520C07A
:1050F00082FF07C060910D0185E0689FB001112417
:1051000017C09091BD049923D1F060910C019617BE
:1051100088F720910D0185E0289F90011124929F2E
:10512000A001939F500D112470E0CA010E946234C7
:105130006038710540F46115710539F002C065E011
:1051400070E0862F08958FE7089581E0089580919B
:10515000BC0480FF08C060910B0170E075956795F5
:105160007595679521C081FF06C060910B0170E0C5
:105170007595679519C082FF04C060910B0170E0BE
:1051800010C09091BD049923C1F060910A01961757
:10519000A0F780910B01899FC001112470E00E944B
:1051A00062346038710528F46115710521F0862F8D
:1051B00008958FE7089581E0089561E070E0F4CFED
:1051C000803F21F40E945E28819504C0813F29F42C
:1051D0000E945E288093C1040895823F21F40E94BA
:1051E0005E28819504C0833F29F40E945E28809345
:1051F000C0040895893F19F40E94A72805C08A3F7A
:1052000031F40E94A72881958093C20408958B3FB2
:1052100021F40E94A728819504C08C3F29F40E94A4
:10522000A7288093C3040895843F21F48091BF048C
:10523000816017C0853F21F48091BF04826011C056
:10524000863F21F48091BF0484600BC0873F21F426
:105250008091BF04886005C0883F31F48091BF040D
:1052600080618093BF0408958D3F21F48091BC0438
:1052700081600BC08E3F21F48091BC04826005C028
:105280008F3F29F48091BC0484608093BC0408950E
:10529000803F39F48091C10487FF6CC01092C10433
:1052A00069C0813F29F48091C1041816BCF362C023
:1052B0009091C004823F29F497FF5CC01092C00413
:1052C00059C0833F19F41916CCF354C0893F41F4F7
:1052D0008091C20418160CF04DC01092C2044AC04E
:1052E0008A3F29F48091C20487FF44C0F6CF8B3FE8
:1052F00039F48091C30487FF3DC01092C3043AC0C3
:105300008C3F29F48091C3041816BCF333C0843F4A
:1053100021F48091BF048E7F17C0853F21F48091D6
:10532000BF048D7F11C0863F21F48091BF048B7F25
:105330000BC0873F21F48091BF04877F05C0883F61
:1053400031F48091BF048F7E8093BF0413C08D3FE2
:1053500021F48091BC048E7F0BC08E3F21F480919C
:10536000BC048D7F05C08F3F29F48091BC048B7FE6
:105370008093BC048091C00481110EC08091C1044F
:1053800081110AC08091C204811106C08091C304BA
:10539000811102C01092BD0408958EEB94E00E942A
:1053A00060190E94B7279093BA048093B9040895B6
:1053B0001F93CF93DF938091B9049091BA040E9418
:1053C000C327AC019091BD04992321F020910E01D7
:1053D00030E006C02091BB048AE0289F9001112490
:1053E0004217530708F47BC08091C004C091C104E8
:1053F000D091C2041091C304811107C0C1116BC0C8
:10540000D11169C0111167C06AC09F3F19F09F5F39
:105410009093BD04181624F40E945E288093C00463
:105420008091C00487FF05C00E945E28819580930B
:10543000C0041C1624F40E945E288093C10480914D
:10544000C10487FF05C00E945E2881958093C10436
:105450003091C0043323E1F02091C1042223C1F034
:1054600045EB3403C0011124892F990F990B009744
:1054700009F481E08093C00435EB2303C0011124BB
:10548000892F990F990B009709F481E08093C1044B
:105490001D1624F40E94A7288093C2048091C204A0
:1054A00087FF05C00E94A72881958093C20411162A
:1054B00024F40E94A7288093C3048091C30487FF2B
:1054C00005C00E94A72881958093C304DF91CF91E6
:1054D0001F910C94CD299F3F09F099CFA1CFDF9167
:1054E000CF911F910895EEEBF4E086E0DF011D926D
:1054F0008A95E9F71092BD041092BC04089580913A
:10550000E40408950F931F93CF93DF9300D01F926D
:10551000CDB7DEB78C010E94F02C823011F08430C0
:1055200021F584E089831B830A8382E08093E9006C
:105530008FEF9091E800815095FD06C095ED9A950A
:10554000F1F700008111F5CF8091E80085FF0DC0D3
:1055500040E050E063E070E0CE0101960E940D2D26
:105560008091E8008E778093E8000F900F900F9065
:10557000DF91CF911F910F910895CF93DF9300D0CA
:105580001F92CDB7DEB720916006243031F523E0BD
:105590002983805891099B838A8382E08093E90064
:1055A0008FEF9091E800815095FD06C095ED9A959A
:1055B000F1F700008111F5CF8091E80085FF0DC063
:1055C00040E050E063E070E0CE0101960E940D2DB6
:1055D0008091E8008E778093E8000F900F900F90F5
:1055E000DF91CF910895CF93DF93EC010E94F02CCF
:1055F000823011F08430F9F482E08093E9009FEF6B
:105600008091E800915085FD06C085ED8A95F1F7FF
:1056100000009111F5CF8091E80085FF0CC040E0BB
:1056200050E066E070E0CE010E940D2D8091E80010
:105630008E778093E800DF91CF910895CF93DF9329
:10564000EC010E94F02C823011F08430D9F5809169
:105650001901882339F080915A0687FF03C060E260
:1056600082E002C068E081E08093E9008FEF9091D2
:10567000E800815095FD06C095ED9A95F1F7000080
:105680008111F5CF8091E80085FF1CC08091190140
:10569000811105C040E050E068E070E003C070E0B8
:1056A00040E050E0CE010E940D2D8091E8008E7701
:1056B0008093E80080E2FE01A4ECB4E001900D923A
:1056C0008A95E1F7DF91CF91089580915F0681116E
:1056D00009C00E94A22E0E94FF2E8091E2008460E9
:1056E0008093E200089510925F060895089508954A
:1056F0000C947D2742E061EC81E00E941C2E42E286
:1057000061EC82E00C941C2E80916206833009F4D7
:1057100060C030F4813071F0823009F499C008958E
:105720008A3009F485C08B3009F46BC0893009F0E8
:10573000A7C020C080916106813A09F0A1C0809184
:10574000E800877F8093E800809165069091660667
:10575000892B21F460E284EC94E003C060E080E0F7
:1057600090E070E00E94582D8091E8008B77809344
:10577000E800089580916106813209F081C080912E
:10578000650690916606029708F07AC08091E8005D
:10579000877F8093E8008091E80082FD05C08091BA
:1057A00060068111F8CF6CC02091F3008091F20067
:1057B00090E0922B029729F48091F1008B7F813049
:1057C00021F48091F1008093E4048091E8008B77CC
:1057D00053C080916106813A09F052C080916506FC
:1057E00090916606892B09F04BC08091E800877F75
:1057F0008093E8008091E80080FFFCCF8091190140
:1058000036C0809161068132D9F58091650690910C
:105810006606892BA9F58091E800877F8093E800D0
:105820000E94512E80916306809319010C947C1F75
:1058300080916106813221F58091E800877F809315
:10584000E8000E94512E809164068093E50408953B
:1058500080916106813AA1F48091E800877F80936E
:10586000E8008091E80080FFFCCF8091E504809300
:10587000F1008091E8008E778093E8000C94512E1F
:10588000089584B7877F84BF0FB6F894A895809158
:105890006000886180936000109260000FBE80E815
:1058A00080936100109261000E94A2190E94A22EB2
:1058B0000E94FF2E8091E20084608093E200789441
:1058C0000E948E310E94A8198FE091E00E94351944
:1058D00080916006853069F40E94352780915E06CC
:1058E0008823B1F30E946627882391F30E94F72C46
:1058F000EFCF0E94AE19ECCF0C947E2C292F3327CA
:1059000023303105C9F064F42130310581F02230B3
:10591000310509F04CC08BE390E02BE036E04BC042
:105920002132310521F12232310589F140C082E175
:1059300090E026E436E03FC099278130910571F070
:105940002CF4892BA1F5E7E0F6E00DC0823091053B
:1059500041F0039761F5E1EDF5E005C0EFEEF5E00C
:1059600002C0E7EDF5E0849190E09F0124C061154D
:10597000710541F061307105D1F489E090E026E3D2
:1059800036E019C089E090E02DE136E014C06115E1
:10599000710541F06130710551F480EC90E028E52B
:1059A00036E009C080E490E028E137E004C080E000
:1059B00090E020E030E0FA013183208308950895DB
:1059C000CF93C82F0E94DF2CC093E604CF91089597
:1059D00080916006843011F081E0089582E008959E
:1059E0008091E604811102C00C94E82C089580E1B6
:1059F00089BD82E189BD09B400FEFDCF8091D80048
:105A00008F7D8093D8008091E00082608093E000D9
:105A10008091E00081FDFCCF0895CF92DF92EF925C
:105A2000FF920F931F93CF93DF93EC018B016A01D9
:105A30000E94702E811133C0C114D10439F0F601D7
:105A400080819181081B190BC80FD91FE12CF12C03
:105A50000115110519F18091E80085FD16C08091AE
:105A6000E8008E778093E800C114D10449F0F60174
:105A700080819181E80EF91EF182E08285E00FC0FD
:105A80000E94702E882321F30AC089918093F1002F
:105A900001501109FFEFEF1AFF0ADACF80E0DF9122
:105AA000CF911F910F91FF90EF90DF90CF900895CD
:105AB00020916706309168062617370748F0611570
:105AC000710539F42091E8002E772093E80001C099
:105AD000B90140E061157105A9F12091600622230A
